:100000000C942A000C9447000C9447000C94470071
:100010000C9447000C9447000C9447000C94470044
:100020000C9447000C9447000C9447000C94470034
:100030000C9447000C9447000C9447000C94470024
:100040000C9447000C9447000C9447000C94470014
:100050000C94470011241FBECFE5D8E0DEBFCDBF12
:1000600011E0A0E6B0E0E8E1F5E202C005900D92F3
:10007000A23BB107D9F711E0A2EBB1E001C01D929C
:10008000A83BB107E1F70E9449000C948A120C9436
:100090000000DF93CF93CDB7DEB762970FB6F89429
:1000A000DEBF0FBECDBF0E94A6020E94530183E0B7
:1000B00066E040E00E94C407E7E4F0E08081882F1A
:1000C00090E0382F2227E6E4F0E08081882F90E04E
:1000D000822B932B9A8B898BEDE4F0E08081882F23
:1000E00090E0382F2227ECE4F0E08081882F90E028
:1000F000822B932B988B8F87A8E5B0E0E8E5F0E0A2
:10010000808180628C93188A1F86EFE4F0E0108271
:10011000EEE4F0E081E48083A8E5B0E0E8E5F0E01B
:10012000808180728C938C918823B1F389899A891C
:100130009093B3018093B201A8E5B0E0E8E5F0E068
:10014000808180628C93EEE4F0E081E08083A8E51A
:10015000B0E0E8E5F0E0808180728C938C91882398
:10016000B1F389899A899093B5018093B401A8E588
:10017000B0E0E8E5F0E0808180628C93EEE4F0E0AE
:1001800081E48083A8E5B0E0E8E5F0E0808180725A
:100190008C938C918823B1F389899A899093B701C4
:1001A0008093B601A8E5B0E0E8E5F0E080818062E8
:1001B0008C93EEE4F0E010820E9475010E94D90158
:1001C00080E090E8ABEBB4E48B879C87AD87BE877B
:1001D0006B857C858D859E8520E030E04AE755E47F
:1001E0000E94EB0CDC01CB018F839887A987BA872B
:1001F0006F81788589859A8520E030E040E85FE36B
:100200000E94F10E88232CF481E090E09E838D8380
:100210003FC06F81788589859A8520E03FEF4FE761
:1002200057E40E94910E18164CF56B857C858D85E0
:100230009E8520E030E040E251E40E94EB0CDC01BE
:10024000CB01BC01CD010E94150BDC01CB019E83CB
:100250008D830FC080E991E09C838B838B819C818F
:100260000197F1F79C838B838D819E8101979E83FB
:100270008D838D819E81009769F745CF6F81788549
:1002800089859A850E94150BDC01CB019E838D83A5
:100290008D819E819A83898389819A810197F1F763
:1002A0009A83898330CFDF93CF93CDB7DEB781E0D8
:1002B0000E940E0680E060E00E945D0680E690E00D
:1002C0000E94410680E066E00E945D0683E690E0C1
:1002D0000E94410680E06CE00E945D0686E690E0A8
:1002E0000E944106CF91DF910895DF93CF9300D014
:1002F00000D000D0CDB7DEB72091B6013091B70164
:100300008091B2019091B301A901481B590BCA0118
:100310009E838D838D819E819C01442737FD40956E
:10032000542F80E89EE3A0E0B0E0BC01CD010E9424
:100330001612DA01C9019C838B832091B40130919C
:10034000B5018091B2019091B301281B390B84E66D
:1003500090E0AC01249FC001259F900D349F900D2B
:1003600011242D813E81B9010E94EF11CB019A83A6
:10037000898380E062E00E945D068B819C810E94FF
:10038000840680E068E00E945D068D819E810E9467
:10039000840680E06EE00E945D0689810E940A0763
:1003A00026960FB6F894DEBF0FBECDBFCF91DF917A
:1003B0000895DF93CF93CDB7DEB72C970FB6F8949F
:1003C000DEBF0FBECDBF2091B4013091B501809149
:1003D000B2019091B301281B390B84E690E0289F6D
:1003E000A001299F500D389F500D11242091B60176
:1003F0003091B7018091B2019091B301281B390B64
:10040000CA01B9010E94EF11CB019C878B878B85B4
:100410009C85880F991F880F991F880F991F24E6C4
:1004200030E0B9010E940312CB019A8789871886B0
:100430001F8228E030E089859A85A901481B590B65
:10044000CA019E838D8381E060E00E945D0633C017
:1004500080E00E94340681E090E09C838B8308C09A
:1004600081E00E9434068B819C8101969C838B8362
:100470002B813C8189859A85281739078CF382E086
:100480000E94340681E090E09A83898308C083E06B
:100490000E94340689819A8101969A8389832981F1
:1004A0003A818D819E81281739078CF38F81988539
:1004B000019698878F838F8198858430910544F2C7
:1004C0002C960FB6F894DEBF0FBECDBFCF91DF9153
:1004D0000895DF93CF9300D0CDB7DEB71A8219828B
:1004E00019822CC08981882F90E00896880F991F67
:1004F000880F991F880F991F0E940E061A8218C034
:100500008981482F50E08A81282F30E0CA01880F66
:10051000991F880F991F880F991F820F931FFC0145
:10052000E759FF4F80810E9434068A818F5F8A835A
:100530008A81883028F389818F5F89838981883017
:1005400088F20F900F90CF91DF910895DF93CF93B2
:10055000CDB7DEB7E4970FB6F894DEBF0FBECDBFC0
:1005600080E064E041E00E94C40780E065E041E093
:100570000E94C40780E066E041E00E94C40780E07A
:1005800067E041E00E94C40781E061E041E00E9431
:10059000C40781E062E041E00E94C40781E063E0BB
:1005A00041E00E94C40781E062E040E00E94A708A9
:1005B00080E090E0A0E7B1E489AB9AABABABBCAB19
:1005C00069A97AA98BA99CA920E030E04AE755E403
:1005D0000E94EB0CDC01CB018DA79EA7AFA7B8ABA7
:1005E0006DA57EA58FA598A920E030E040E85FE3E7
:1005F0000E94F10E88232CF481E090E09CA78BA749
:100600003FC06DA57EA58FA598A920E03FEF4FE7DD
:1006100057E40E94910E18164CF569A97AA98BA986
:100620009CA920E030E040E251E40E94EB0CDC01A8
:10063000CB01BC01CD010E94150BDC01CB019CA7B5
:100640008BA70FC080E991E09AA789A789A59AA5F1
:100650000197F1F79AA789A78BA59CA501979CA75D
:100660008BA78BA59CA5009769F714C06DA57EA5E7
:100670008FA598A90E94150BDC01CB019CA78BA725
:100680008BA59CA598A78FA38FA198A50197F1F79B
:1006900098A78FA383E00E940E0680E090E0A0EA76
:1006A000B0E48BA39CA3ADA3BEA36BA17CA18DA141
:1006B0009EA120E030E04AE755E40E94EB0CDC010B
:1006C000CB018F8F98A3A9A3BAA36F8D78A189A11D
:1006D0009AA120E030E040E85FE30E94F10E882319
:1006E0002CF481E090E09E8F8D8F3FC06F8D78A1BC
:1006F00089A19AA120E03FEF4FE757E40E94910EB5
:1007000018164CF56BA17CA18DA19EA120E030E0D4
:1007100040E251E40E94EB0CDC01CB01BC01CD01B5
:100720000E94150BDC01CB019E8F8D8F0FC080E9DD
:1007300091E09C8F8B8F8B8D9C8D0197F1F79C8F17
:100740008B8F8D8D9E8D01979E8F8D8F8D8D9E8D24
:10075000009769F714C06F8D78A189A19AA10E94B2
:10076000150BDC01CB019E8F8D8F8D8D9E8D9A8F09
:10077000898F898D9A8D0197F1F79A8F898F83E000
:100780000E940E0680E090E0A8ECB2E48D8B9E8B78
:10079000AF8BB88F6D897E898F89988D2BEA3AEA65
:1007A0004AEA50E40E94EB0CDC01CB01898B9A8B66
:1007B000AB8BBC8B69897A898B899C8920E030E07E
:1007C00040E85FE30E94F10E88231CF481E0888BEF
:1007D00091C069897A898B899C8920E030E04FE754
:1007E00053E40E94910E18160CF07BC06D897E892F
:1007F0008F89988D20E030E04AE754E40E94E50DAF
:10080000DC01CB018C879D87AE87BF876C857D859A
:100810008E859F8520E030E04AE755E40E94EB0C8E
:10082000DC01CB0188879987AA87BB876885798592
:100830008A859B8520E030E040E85FE30E94F10E6E
:1008400088232CF481E090E09F838E833FC06885ED
:1008500079858A859B8520E03FEF4FE757E40E942A
:10086000910E18164CF56C857D858E859F8520E050
:1008700030E040E251E40E94EB0CDC01CB01BC0112
:10088000CD010E94150BDC01CB019F838E830FC02D
:1008900080E991E09D838C838C819D810197F1F7A4
:1008A0009D838C838E819F8101979F838E838E8110
:1008B0009F81009769F724C0688579858A859B8523
:1008C0000E94150BDC01CB019F838E838E819F815B
:1008D0009B838A838A819B810197F1F79B838A831B
:1008E0000FC069897A898B899C890E94150BDC016C
:1008F000CB01888B8889898389818A95F1F78983DF
:1009000083E00E940E0682E00E940E0688E20E94AA
:100910000E060E94690280E060E00E945D068CE0A5
:100920000E940E06E4960FB6F894DEBF0FBECDBF50
:10093000CF91DF910895DF93CF93CDB7DEB7A69720
:100940000FB6F894DEBF0FBECDBF81E063E041E09B
:100950000E94A70880E090E0A0E8BFE38BA39CA3DF
:10096000ADA3BEA36BA17CA18DA19EA12BEA3AEA07
:100970004AEA50E40E94EB0CDC01CB018F8F98A374
:10098000A9A3BAA36F8D78A189A19AA120E030E034
:1009900040E85FE30E94F10E88231CF481E08E8F13
:1009A00091C06F8D78A189A19AA120E030E04FE736
:1009B00053E40E94910E18160CF07BC06BA17CA131
:1009C0008DA19EA120E030E04AE754E40E94E50DAD
:1009D000DC01CB018A8F9B8FAC8FBD8F6A8D7B8DA5
:1009E0008C8D9D8D20E030E04AE755E40E94EB0CB1
:1009F000DC01CB018E8B9F8BA88FB98F6E897F898D
:100A0000888D998D20E030E040E85FE30E94F10E90
:100A100088232CF481E090E09D8B8C8B3FC06E8905
:100A20007F89888D998D20E03FEF4FE757E40E9442
:100A3000910E18164CF56A8D7B8D8C8D9D8D20E066
:100A400030E040E251E40E94EB0CDC01CB01BC0140
:100A5000CD010E94150BDC01CB019D8B8C8B0FC04F
:100A600080E991E09B8B8A8B8A899B890197F1F7BA
:100A70009B8B8A8B8C899D8901979D8B8C8B8C8914
:100A80009D89009769F724C06E897F89888D998D2B
:100A90000E94150BDC01CB019D8B8C8B8C899D8971
:100AA000998B888B888999890197F1F7998B888B25
:100AB0000FC06F8D78A189A19AA10E94150BDC014E
:100AC000CB018E8F8E8D8F878F858A95F1F78F87DB
:100AD00081E063E040E00E94A70880E090E0A0E0B1
:100AE000B0E48B879C87AD87BE876B857C858D85C1
:100AF0009E8520E030E04AE755E40E94EB0CDC01E3
:100B0000CB018F839887A987BA876F81788589857C
:100B10009A8520E030E040E85FE30E94F10E8823F0
:100B20002CF481E090E09E838D833FC06F817885B7
:100B300089859A8520E03FEF4FE757E40E94910EA8
:100B400018164CF56B857C858D859E8520E030E000
:100B500040E251E40E94EB0CDC01CB01BC01CD0171
:100B60000E94150BDC01CB019E838D830FC080E9B1
:100B700091E09C838B838B819C810197F1F79C830F
:100B80008B838D819E8101979E838D838D819E8134
:100B9000009769F714C06F81788589859A850E94CE
:100BA000150BDC01CB019E838D838D819E819A8301
:100BB000898389819A810197F1F79A838983A6961F
:100BC0000FB6F894DEBF0FBECDBFCF91DF91089571
:100BD000DF93CF9300D00F92CDB7DEB78B838B819D
:100BE0008A838B818295807F898381E061E041E007
:100BF0000E94A70880E060EF4A810E948A090E9453
:100C00009B0480E060EF49810E948A090E949B0456
:100C10000F900F900F90CF91DF910895DF93CF93B6
:100C200000D00F92CDB7DEB78B838B818A838B8107
:100C30008295807F898381E061E040E00E94A7087F
:100C400080E060EF4A810E948A090E949B0480E054
:100C500060EF49810E948A090E949B040F900F90C7
:100C60000F90CF91DF910895DF93CF930F92CDB77F
:100C7000DEB7898389810E94E8050F90CF91DF91CB
:100C80000895DF93CF9300D0CDB7DEB79A838983E1
:100C90000AC0E981FA8180810E94340689819A81A3
:100CA00001969A838983E981FA818081882389F773
:100CB0000F900F90CF91DF910895DF93CF9300D0E5
:100CC00000D0CDB7DEB789836A838981282F30E0D1
:100CD0003C832B838B819C81009731F02B813C815D
:100CE0002130310531F009C08A8180580E940E06FA
:100CF00004C08A8180540E940E060F900F900F90BE
:100D00000F90CF91DF910895DF93CF9300D0CDB7AF
:100D1000DEB79A83898389819A8128EE33E0B9010D
:100D20000E94EF11CB01805D0E94340689819A8177
:100D300028EE33E0B9010E94EF1124E630E0B9015A
:100D40000E94EF11CB01805D0E94340689819A8157
:100D500028EE33E0B9010E94EF1124E630E0B9013A
:100D60000E94EF112AE030E0B9010E94EF11CB019F
:100D7000805D0E94340689819A8128EE33E0B901B2
:100D80000E94EF1124E630E0B9010E94EF112AE041
:100D900030E0B9010E94EF11805D0E9434060F908F
:100DA0000F90CF91DF910895DF93CF9300D0CDB70F
:100DB000DEB79A83898389819A8124E630E0B9017C
:100DC0000E94EF11CB01805D0E94340689819A81D7
:100DD00024E630E0B9010E94EF112AE030E0B901C9
:100DE0000E94EF11CB01805D0E94340689819A81B7
:100DF00024E630E0B9010E94EF112AE030E0B901A9
:100E00000E94EF11805D0E9434060F900F90CF91E9
:100E1000DF910895DF93CF930F92CDB7DEB789832B
:100E200089819AE0692F0E94E311805D0E94340657
:100E300089819AE0692F0E94E311892F805D0E94C9
:100E400034060F90CF91DF910895DF93CF93CDB704
:100E5000DEB72C970FB6F894DEBF0FBECDBF698703
:100E60007A878B879C8718861F8280E090E0A0E0BD
:100E7000B0E08B839C83AD83BE831A82198269851F
:100E80007A858B859C850E94150BDC01CB019887A8
:100E90008F838F819885CC01A0E0B0E0BC01CD01AB
:100EA0000E94750F9B01AC0169857A858B859C85B5
:100EB0000E948D0CDC01CB018B839C83AD83BE83B0
:100EC0006B817C818D819E8120E030E048EC52E492
:100ED0000E94EB0CDC01CB01BC01CD010E94150B83
:100EE000DC01CB019A8389838F8198850E948406D7
:100EF0008EE20E94340689819A810E9484062C9693
:100F00000FB6F894DEBF0FBECDBFCF91DF9108952D
:100F1000DF93CF93CDB7DEB7A3E5B0E0E3E5F0E034
:100F2000808188648C93CF91DF910895DF93CF9374
:100F300000D000D0CDB7DEB78B836C831A821982C4
:100F40008C81482F50E0CA019C01220F331FC90138
:100F50009695982F882797958795821B930B840FDA
:100F6000951F24E630E0B9010E94EF11CB019A836E
:100F70008983ECE5F0E0898180830F900F900F90DA
:100F80000F90CF91DF910895DF93CF9300D000D0E1
:100F90000F92CDB7DEB789836A834B838981282F6F
:100FA00030E03D832C838C819D818130910509F453
:100FB00043C02C813D81223031052CF48C819D81F0
:100FC000009771F0BCC02C813D812230310509F4BD
:100FD0005FC08C819D818330910509F485C0AFC0CD
:100FE0008B818823A9F4AAE3B0E0EAE3F0E08081F2
:100FF000482F8A81282F30E081E090E0022E02C045
:10100000880F991F0A94E2F7809584238C9397C0E8
:10101000AAE3B0E0EAE3F0E08081482F8A81282F3C
:1010200030E081E090E0022E02C0880F991F0A9400
:10103000E2F7842B8C9383C08B818823A9F4A7E3E8
:10104000B0E0E7E3F0E08081482F8A81282F30E08C
:1010500081E090E0022E02C0880F991F0A94E2F707
:10106000809584238C936BC0A7E3B0E0E7E3F0E0C6
:101070008081482F8A81282F30E081E090E0022E85
:1010800002C0880F991F0A94E2F7842B8C9357C0F3
:101090008B818823A9F4A4E3B0E0E4E3F0E080814D
:1010A000482F8A81282F30E081E090E0022E02C094
:1010B000880F991F0A94E2F7809584238C933FC090
:1010C000A4E3B0E0E4E3F0E08081482F8A81282F98
:1010D00030E081E090E0022E02C0880F991F0A9450
:1010E000E2F7842B8C932BC08B818823A9F4A1E396
:1010F000B0E0E1E3F0E08081482F8A81282F30E0E2
:1011000081E090E0022E02C0880F991F0A94E2F756
:10111000809584238C9313C0A1E3B0E0E1E3F0E079
:101120008081482F8A81282F30E081E090E0022ED4
:1011300002C0880F991F0A94E2F7842B8C930F90BA
:101140000F900F900F900F90CF91DF910895DF9344
:10115000CF9300D000D00F92CDB7DEB789836A83DA
:101160004B838981282F30E03D832C838C819D81A6
:101170008130910509F443C02C813D812230310535
:101180002CF48C819D81009771F0BCC02C813D8135
:101190002230310509F45FC08C819D818330910537
:1011A00009F485C0AFC08B818130A1F4ABE3B0E01E
:1011B000EBE3F0E08081482F8A81282F30E081E046
:1011C00090E0022E02C0880F991F0A94E2F7842B48
:1011D0008C9398C0ABE3B0E0EBE3F0E08081482F64
:1011E0008A81282F30E081E090E0022E02C0880F33
:1011F000991F0A94E2F7809584238C9383C08B8196
:101200008130A1F4A8E3B0E0E8E3F0E08081482F6A
:101210008A81282F30E081E090E0022E02C0880F02
:10122000991F0A94E2F7842B8C936CC0A8E3B0E07A
:10123000E8E3F0E08081482F8A81282F30E081E0C8
:1012400090E0022E02C0880F991F0A94E2F7809561
:1012500084238C9357C08B818130A1F4A5E3B0E047
:10126000E5E3F0E08081482F8A81282F30E081E09B
:1012700090E0022E02C0880F991F0A94E2F7842B97
:101280008C9340C0A5E3B0E0E5E3F0E08081482F17
:101290008A81282F30E081E090E0022E02C0880F82
:1012A000991F0A94E2F7809584238C932BC08B813D
:1012B0008130A1F4A2E3B0E0E2E3F0E08081482FC6
:1012C0008A81282F30E081E090E0022E02C0880F52
:1012D000991F0A94E2F7842B8C9314C0A2E3B0E028
:1012E000E2E3F0E08081482F8A81282F30E081E01E
:1012F00090E0022E02C0880F991F0A94E2F78095B1
:1013000084238C930F900F900F900F900F90CF919C
:10131000DF910895DF93CF9300D000D00F92CDB727
:10132000DEB789836A834B838981282F30E03D8330
:101330002C838C819D818130910529F12C813D8107
:10134000223031052CF48C819D81009761F04AC0D8
:101350002C813D812230310531F18C819D8183309A
:10136000910589F13FC0ABE3B0E0EBE3F0E08081B1
:10137000982F8A818095292F28239B818A81892310
:10138000822B8C932FC0A8E3B0E0EBE3F0E08081E8
:10139000982F8A818095292F28239B818A818923F0
:1013A000822B8C931FC0A5E3B0E0EBE3F0E08081DB
:1013B000982F8A818095292F28239B818A818923D0
:1013C000822B8C930FC0A2E3B0E0EBE3F0E08081CE
:1013D000982F8A818095292F28239B818A818923B0
:1013E000822B8C930F900F900F900F900F90CF91B6
:1013F000DF910895DF93CF9300D000D0CDB7DEB753
:1014000089836A838981282F30E03C832B838B81F9
:101410009C818130910549F12B813C81223031053D
:101420002CF48B819C81009761F05AC02B813C8108
:101430002230310571F18B819C8183309105E9F176
:101440004FC0ABE3B0E0EBE3F0E08081482F8A814E
:10145000282F30E081E090E0022E02C0880F991F13
:101460000A94E2F784278C933BC0A8E3B0E0E8E35A
:10147000F0E08081482F8A81282F30E081E090E0E1
:10148000022E02C0880F991F0A94E2F784278C93DA
:1014900027C0A5E3B0E0E5E3F0E08081482F8A8132
:1014A000282F30E081E090E0022E02C0880F991FC3
:1014B0000A94E2F784278C9313C0A2E3B0E0E2E33E
:1014C000F0E08081482F8A81282F30E081E090E091
:1014D000022E02C0880F991F0A94E2F784278C938A
:1014E0000F900F900F900F90CF91DF910895DF93A1
:1014F000CF9300D000D00F92CDB7DEB78A836B8335
:1015000019828A81282F30E03D832C838C819D8134
:101510008130910589F12C813D81223031052CF4F7
:101520008C819D81009769F077C02C813D812230AC
:101530003105E9F18C819D818330910509F452C018
:101540006BC0A9E3B0E0E9E3F0E08081482F8B8134
:10155000282F30E081E090E0022E02C0880F991F12
:101560000A94E2F784238C938C91882319F081E00C
:10157000898352C0198250C0A6E3B0E0E6E3F0E0F0
:101580008081482F8B81282F30E081E090E0022E6F
:1015900002C0880F991F0A94E2F784238C938C91E0
:1015A000882319F081E0898337C0198235C0A3E30D
:1015B000B0E0E3E3F0E08081482F8B81282F30E01A
:1015C00081E090E0022E02C0880F991F0A94E2F792
:1015D00084238C938C91882319F081E089831CC02B
:1015E00019821AC0A0E3B0E0E0E3F0E08081482F68
:1015F0008B81282F30E081E090E0022E02C0880F1E
:10160000991F0A94E2F784238C938C91882319F014
:1016100081E0898301C0198289810F900F900F901A
:101620000F900F90CF91DF910895EF92FF920F935B
:101630001F937B018C0120E030E040E05FE40E94DA
:10164000C10E88238CF0C801B70120E030E040E0F3
:101650005FE40E948D0C0E94210F9B01AC01205081
:1016600030404040504806C0C801B7010E94210FD9
:101670009B01AC01B901CA011F910F91FF90EF903E
:101680000895A0E0B0E0E7E4FBE00C945312DC0125
:101690002B01FA019C91923008F439C1EB01888149
:1016A000823008F433C1943069F4843009F02FC1DA
:1016B00011969C9111978981981709F428C1A9EA7C
:1016C000B0E025C1843009F421C18230A9F4923000
:1016D00009F01DC19A01AD0188E0EA010990AE014F
:1016E000E90109929E018150C1F7E20189811196B9
:1016F0009C918923818308C1923009F407C1129615
:101700002D903C901397EB018A819B811496AD90AC
:10171000BD90CD90DC901797EC80FD800E811F81ED
:101720009101281B390BB90137FF04C066277727C1
:10173000621B730B603271050CF061C01216130648
:101740006CF537014801062E04C09694879477946F
:1017500067940A94D2F721E030E040E050E004C002
:10176000220F331F441F551F6A95D2F72150304076
:10177000404050402E213F21402351232115310567
:101780004105510521F021E030E040E050E07901D1
:101790008A01E628F728082919293CC0232BD1F112
:1017A000260E371E35014601062E04C096948794F6
:1017B000779467940A94D2F721E030E040E050E05B
:1017C00004C0220F331F441F551F6A95D2F72150C2
:1017D0003040404050402A213B214C215D212115C1
:1017E00031054105510521F021E030E040E050E0B5
:1017F00059016A01A628B728C828D9280BC0821524
:1018000093052CF01C01AA24BB24650103C0EE241F
:10181000FF24870111969C91D20111968C91981703
:1018200009F445C0992339F0A80197012A193B0909
:101830004C095D0906C0A60195012E193F09400B10
:10184000510B57FD08C011823382228224833583D5
:10185000468357831DC081E081833382228288279B
:101860009927DC01821B930BA40BB50B8483958312
:10187000A683B7830DC0220F331F441F551F248337
:101880003583468357838281938101979383828333
:101890002481358146815781DA01C9010197A10967
:1018A000B1098F5F9F4FAF4FBF4328F30BC09183A8
:1018B00033822282EA0CFB1C0C1D1D1DE482F58282
:1018C0000683178383E08083248135814681578195
:1018D00057FF1AC0C901AA2797FDA095BA2F81709A
:1018E0009070A070B0705695479537952795822BCC
:1018F000932BA42BB52B84839583A683B7838281F6
:101900009381019693838283DF0101C0D201CD01CF
:10191000CDB7DEB7E2E10C946F12A0E2B0E0E3E9EC
:10192000FCE00C945F1269837A838B839C832D8304
:101930003E834F835887E9E0EE2EF12CEC0EFD1E1E
:10194000CE010196B7010E9412118E010F5E1F4F4A
:10195000CE010596B8010E9412118A8991E089276B
:101960008A8BC701B801AE01475E5F4F0E94410BF1
:101970000E943D10A096E6E00C947B12A0E2B0E03D
:10198000E4ECFCE00C945F1269837A838B839C8384
:101990002D833E834F835887F9E0EF2EF12CEC0E18
:1019A000FD1ECE010196B7010E9412118E010F5E3D
:1019B0001F4FCE010596B8010E941211C701B80150
:1019C000AE01475E5F4F0E94410B0E943D10A09602
:1019D000E6E00C947B12A0E2B0E0E1EFFCE00C94B6
:1019E000531269837A838B839C832D833E834F8339
:1019F0005887CE010196BE01675F7F4F0E9412118A
:101A0000CE010596BE016F5E7F4F0E94121199852F
:101A1000923088F089898230C8F0943019F482308D
:101A200051F404C0843029F4923081F489EA90E0C2
:101A3000C6C0923049F420E09A858A89981321E043
:101A40002A87CE010996BBC0823049F420E09A85EE
:101A50008A89981321E02A8BCE014196B0C02D844B
:101A60003E844F8458886D887E888F88988CEE24B9
:101A7000FF248701AA24BB24650140E050E060E018
:101A800070E0E0E0F0E0C10181709070892BE9F036
:101A9000E60CF71C081D191D9A01AB012A0D3B1D10
:101AA0004C1D5D1D80E090E0A0E0B0E0E614F7047E
:101AB0000805190520F481E090E0A0E0B0E0BA014B
:101AC000A901480F591F6A1F7B1FAA0CBB1CCC1C05
:101AD000DD1C97FE08C081E090E0A0E0B0E0A82AFD
:101AE000B92ACA2ADB2A3196E032F10549F0660CA0
:101AF000771C881C991C5694479437942794C3CF1D
:101B0000FA85EA892B893C898B859C85280F391FAA
:101B10002E5F3F4F17C0CA0181709070892B61F012
:101B200016950795F794E79480E090E0A0E0B0E880
:101B3000E82AF92A0A2B1B2B769567955795479526
:101B40002F5F3F4F77FDE7CF0CC0440F551F661F37
:101B5000771F17FD4160EE0CFF1C001F111F215065
:101B60003040403090E0590790E0690790E47907F1
:101B700060F32B8F3C8FDB01CA018F779070A070D0
:101B8000B07080349105A105B10561F447FD0AC02C
:101B9000E114F1040105110529F0405C5F4F6F4F1E
:101BA0007F4F40781A8EFE1711F081E08A8F4D8F9B
:101BB0005E8F6F8F78A383E0898FCE0149960E9454
:101BC0003D10A096E2E10C946F12A8E1B0E0EBEEBC
:101BD000FDE00C945B1269837A838B839C832D8355
:101BE0003E834F835887B9E0EB2EF12CEC0EFD1E9F
:101BF000CE010196B7010E9412118E010F5E1F4F98
:101C0000CE010596B8010E9412112985223008F4F0
:101C10007EC03989323010F4B8017CC08A859A8937
:101C200089278A87243011F0223031F4231709F0F4
:101C30006EC069EA70E06EC0343039F41D861E86CD
:101C40001F86188A1C861B8604C0323021F484E06B
:101C50008987B7015FC02B853C858B899C89281BB0
:101C6000390B3C872B87ED84FE840F851889AD885E
:101C7000BE88CF88D88CEA14FB040C051D0540F4FF
:101C8000EE0CFF1C001F111F215030403C872B879A
:101C900020E030E040E050E080E090E0A0E0B0E400
:101CA00060E070E0EA14FB040C051D0540F0282BF1
:101CB000392B4A2B5B2BEA18FB080C091D09B6953A
:101CC000A79597958795EE0CFF1C001F111F6F5F5E
:101CD0007F4F6F31710531F7DA01C9018F7790704D
:101CE000A070B07080349105A105B10561F427FDA5
:101CF0000AC0E114F1040105110529F0205C3F4FF1
:101D00004F4F5F4F20782D873E874F87588BBE01FE
:101D1000675F7F4FCB010E943D106896EAE00C940C
:101D20007712A8E1B0E0E7E9FEE00C945F12698366
:101D30007A838B839C832D833E834F83588789E0EE
:101D4000E82EF12CEC0EFD1ECE010196B7010E948B
:101D500012118E010F5E1F4FCE010596B8010E9431
:101D600012118985823040F08989823028F0C701BC
:101D7000B8010E948A1101C08FEF6896E6E00C94CA
:101D80007B12A8E1B0E0E7ECFEE00C945F126983FF
:101D90007A838B839C832D833E834F83588789E08E
:101DA000E82EF12CEC0EFD1ECE010196B7010E942B
:101DB00012118E010F5E1F4FCE010596B8010E94D1
:101DC00012118985823040F08989823028F0C7015C
:101DD000B8010E948A1101C08FEF6896E6E00C946A
:101DE0007B12A8E1B0E0E7EFFEE00C945F1269839C
:101DF0007A838B839C832D833E834F83588789E02E
:101E0000E82EF12CEC0EFD1ECE010196B7010E94CA
:101E100012118E010F5E1F4FCE010596B8010E9470
:101E200012118985823040F08989823028F0C701FB
:101E3000B8010E948A1101C081E06896E6E00C9426
:101E40007B12ACE0B0E0E7E2FFE00C946312698340
:101E50007A838B839C83CE010196BE016B5F7F4F9B
:101E60000E9412118D81823061F1823050F18430F4
:101E700021F48E81882351F12EC02F81388537FDC2
:101E800020C06E812F3131051CF06623F9F023C08C
:101E90008EE190E0821B930B29853A854B855C850A
:101EA00004C056954795379527958A95D2F76623AE
:101EB000B1F050954095309521953F4F4F4F5F4F72
:101EC0000EC020E030E040E050E009C02FEF3FEFCF
:101ED0004FEF5FE704C020E030E040E050E8B90198
:101EE000CA012C96E2E00C947F12A8E0B0E0EBE788
:101EF000FFE00C945B127B018C016115710581057B
:101F0000910519F482E0898360C083E089838EE1C2
:101F1000C82ED12CDC82CB82ED82FE820F83188703
:101F2000C801B7010E94EE0FFC013197F7FF3BC0DB
:101F3000222733272E1B3F0B57016801022E04C0B6
:101F4000D694C794B794A7940A94D2F740E050E08F
:101F500060E070E081E090E0A0E0B0E004C0880FB5
:101F6000991FAA1FBB1F2A95D2F70197A109B10992
:101F70008E219F21A023B1230097A105B10521F057
:101F800041E050E060E070E04A295B296C297D293E
:101F90004D835E836F8378878EE190E08E1B9F0B6D
:101FA0009C838B8312C0309781F00E2E04C0EE0C00
:101FB000FF1C001F111F0A94D2F7ED82FE820F83CF
:101FC0001887CE1ADF0ADC82CB821A82CE010196F4
:101FD0000E943D102896EAE00C947712EF92FF924F
:101FE0000F931F937B018C0180E0E81680E0F806D8
:101FF00081E0080780E0180788F48FEFE816F10405
:102000000105110531F028F088E090E0A0E0B0E093
:1020100017C080E090E0A0E0B0E012C080E0E816D9
:1020200080E0F80680E0080781E0180728F088E1E2
:1020300090E0A0E0B0E004C080E190E0A0E0B0E07B
:1020400020E230E040E050E0281B390B4A0B5B0BEC
:1020500004C016950795F794E7948A95D2F7F7018F
:10206000EF54FF4F8081281B310941095109C901F3
:102070001F910F91FF90EF900895DF92EF92FF92E2
:102080000F931F93FC01E480F58006811781D180B6
:102090008081823048F480E090E0A0E1B0E0E82A5E
:1020A000F92A0A2B1B2BA5C0843009F49FC082306B
:1020B00021F4EE24FF24870105C0E114F104010599
:1020C000110519F4E0E0F0E096C0628173819FEFA2
:1020D000623879070CF05BC022E83FEF261B370B14
:1020E0002A3131052CF020E030E040E050E02AC0F9
:1020F000B801A701022E04C07695679557954795BC
:102100000A94D2F781E090E0A0E0B0E004C0880F2C
:10211000991FAA1FBB1F2A95D2F70197A109B109E0
:102120008E219F21A023B1230097A105B10521F0A5
:1021300081E090E0A0E0B0E09A01AB01282B392BC0
:102140004A2B5B2BDA01C9018F779070A070B070B9
:1021500080349105A105B10539F427FF09C0205C41
:102160003F4F4F4F5F4F04C0215C3F4F4F4F5F4F7A
:10217000E0E0F0E02030A0E03A07A0E04A07A0E469
:102180005A0710F0E1E0F0E079018A0127C06038D9
:10219000710564F5FB01E158FF4FD801C7018F7746
:1021A0009070A070B07080349105A105B10539F42C
:1021B000E7FE0DC080E490E0A0E0B0E004C08FE353
:1021C00090E0A0E0B0E0E80EF91E0A1F1B1F17FF09
:1021D00005C016950795F794E794319687E0169514
:1021E0000795F794E7948A95D1F705C0EE24FF246C
:1021F0008701EFEFF0E06E2F679566276795902FC8
:102200009F77D794DD24D7948E2F8695492F462B20
:10221000582F5D29B701CA011F910F91FF90EF90D0
:10222000DF900895FC01DB01408151812281622F02
:102230006F7770E0221F2227221F9381892F880F3A
:10224000822B282F30E0991F9927991F11969C9374
:10225000119721153105A9F5411551056105710544
:1022600011F482E037C082E89FEF13969C938E931F
:1022700012979A01AB0167E0220F331F441F551FCD
:102280006A95D1F783E08C930DC0220F331F441F52
:10229000551F12968D919C911397019713969C93BD
:1022A0008E931297203080E0380780E0480780E462
:1022B000580758F314962D933D934D935C931797BD
:1022C00008952F3F310579F44115510561057105D8
:1022D00019F484E08C93089564FF03C081E08C932B
:1022E00012C01C9210C02F57304013963C932E936F
:1022F000129783E08C9387E0440F551F661F771F6A
:102300008A95D1F7706414964D935D936D937C9389
:10231000179708951F93DC01FB019C91923008F4FC
:1023200047C08081823008F443C0943051F4119644
:102330001C91843099F58181682F70E0611B7109CF
:102340003FC0843021F0923031F48230B9F1818184
:10235000882389F12DC011961C9111978230F1F0DC
:1023600081811817D9F412962D913C91139782818F
:1023700093818217930794F028173907BCF01496BD
:102380008D919D910D90BC91A02D24813581468128
:102390005781281739074A075B0718F4112341F0C2
:1023A0000AC082179307A407B50740F4112319F058
:1023B00061E070E005C06FEF7FEF02C060E070E0A9
:1023C000CB011F910895991B79E004C0991F9617BE
:1023D00008F0961B881F7A95C9F780950895AA1B67
:1023E000BB1B51E107C0AA1FBB1FA617B70710F000
:1023F000A61BB70B881F991F5A95A9F78095909532
:10240000BC01CD01089597FB092E07260AD077FD60
:1024100004D0E5DF06D000201AF4709561957F4F57
:102420000895F6F7909581959F4F089597FB092E93
:1024300005260ED057FD04D014D00AD0001C38F465
:1024400050954095309521953F4F4F4F5F4F0895E0
:10245000F6F790958095709561957F4F8F4F9F4FC0
:102460000895A1E21A2EAA1BBB1BFD010DC0AA1FD5
:10247000BB1FEE1FFF1FA217B307E407F50720F0ED
:10248000A21BB30BE40BF50B661F771F881F991F68
:102490001A9469F760957095809590959B01AC01B1
:1024A000BD01CF0108952F923F924F925F926F929C
:1024B0007F928F929F92AF92BF92CF92DF92EF92D4
:1024C000FF920F931F93CF93DF93CDB7DEB7CA1B55
:1024D000DB0B0FB6F894DEBF0FBECDBF09942A8880
:1024E000398848885F846E847D848C849B84AA8428
:1024F000B984C884DF80EE80FD800C811B81AA81B5
:10250000B981CE0FD11D0FB6F894DEBF0FBECDBF7F
:08251000ED010895F894FFCFDE
:10251800463D00543D00443D001F1010101010109F
:10252800101F000000000000001010101010101004
:102538001F000000000000001F0000000000000055
:102548000000000000000000000000000000000083
:102558000000000000000000000000000000000073
:102568000000010202030303030404040404040436
:102578000405050505050505050505050505050504
:1025880005060606060606060606060606060606E4
:1025980006060606060606060606060606060606D3
:1025A80006070707070707070707070707070707B4
:1025B80007070707070707070707070707070707A3
:1025C8000707070707070707070707070707070793
:1025D8000707070707070707070707070707070783
:1025E8000708080808080808080808080808080864
:1025F8000808080808080808080808080808080853
:102608000808080808080808080808080808080842
:102618000808080808080808080808080808080832
:102628000808080808080808080808080808080822
:102638000808080808080808080808080808080812
:102648000808080808080808080808080808080802
:1026580008080808080808080808080808080808F2
:02266800080068
:00000001FF
